{
  "contractName": "StructStorage",
  "abi": [
    {
      "constant": true,
      "inputs": [
        {
          "internalType": "uint256",
          "name": "",
          "type": "uint256"
        }
      ],
      "name": "fm",
      "outputs": [
        {
          "internalType": "bytes",
          "name": "fid",
          "type": "bytes"
        },
        {
          "internalType": "bytes32",
          "name": "fname",
          "type": "bytes32"
        },
        {
          "internalType": "bytes32",
          "name": "loc",
          "type": "bytes32"
        },
        {
          "internalType": "bytes32",
          "name": "crop",
          "type": "bytes32"
        },
        {
          "internalType": "uint256",
          "name": "contact",
          "type": "uint256"
        },
        {
          "internalType": "uint256",
          "name": "quantity",
          "type": "uint256"
        },
        {
          "internalType": "uint256",
          "name": "exprice",
          "type": "uint256"
        }
      ],
      "payable": false,
      "stateMutability": "view",
      "type": "function"
    },
    {
      "constant": true,
      "inputs": [
        {
          "internalType": "uint256",
          "name": "",
          "type": "uint256"
        }
      ],
      "name": "l",
      "outputs": [
        {
          "internalType": "bytes",
          "name": "lotno",
          "type": "bytes"
        },
        {
          "internalType": "bytes",
          "name": "grade",
          "type": "bytes"
        },
        {
          "internalType": "uint256",
          "name": "mrp",
          "type": "uint256"
        },
        {
          "internalType": "bytes32",
          "name": "testdate",
          "type": "bytes32"
        },
        {
          "internalType": "bytes32",
          "name": "expdate",
          "type": "bytes32"
        }
      ],
      "payable": false,
      "stateMutability": "view",
      "type": "function"
    },
    {
      "constant": true,
      "inputs": [],
      "name": "tester",
      "outputs": [
        {
          "internalType": "address",
          "name": "",
          "type": "address"
        }
      ],
      "payable": false,
      "stateMutability": "view",
      "type": "function"
    },
    {
      "constant": true,
      "inputs": [],
      "name": "s",
      "outputs": [
        {
          "internalType": "uint256",
          "name": "",
          "type": "uint256"
        }
      ],
      "payable": false,
      "stateMutability": "view",
      "type": "function"
    },
    {
      "constant": true,
      "inputs": [],
      "name": "t",
      "outputs": [
        {
          "internalType": "uint256",
          "name": "",
          "type": "uint256"
        }
      ],
      "payable": false,
      "stateMutability": "view",
      "type": "function"
    },
    {
      "constant": true,
      "inputs": [],
      "name": "c",
      "outputs": [
        {
          "internalType": "uint256",
          "name": "",
          "type": "uint256"
        }
      ],
      "payable": false,
      "stateMutability": "view",
      "type": "function"
    },
    {
      "constant": false,
      "inputs": [
        {
          "internalType": "address",
          "name": "addr",
          "type": "address"
        }
      ],
      "name": "fundaddr",
      "outputs": [],
      "payable": false,
      "stateMutability": "nonpayable",
      "type": "function"
    },
    {
      "constant": false,
      "inputs": [
        {
          "internalType": "address",
          "name": "receiver",
          "type": "address"
        },
        {
          "internalType": "uint256",
          "name": "amount",
          "type": "uint256"
        },
        {
          "internalType": "address",
          "name": "sender",
          "type": "address"
        }
      ],
      "name": "sendCoin",
      "outputs": [
        {
          "internalType": "bool",
          "name": "sufficient",
          "type": "bool"
        }
      ],
      "payable": false,
      "stateMutability": "nonpayable",
      "type": "function"
    },
    {
      "constant": true,
      "inputs": [
        {
          "internalType": "address",
          "name": "addr",
          "type": "address"
        }
      ],
      "name": "getBalance",
      "outputs": [
        {
          "internalType": "uint256",
          "name": "",
          "type": "uint256"
        }
      ],
      "payable": false,
      "stateMutability": "view",
      "type": "function"
    },
    {
      "constant": false,
      "inputs": [
        {
          "internalType": "bytes",
          "name": "id",
          "type": "bytes"
        },
        {
          "internalType": "bytes32",
          "name": "name",
          "type": "bytes32"
        },
        {
          "internalType": "bytes32",
          "name": "loc",
          "type": "bytes32"
        },
        {
          "internalType": "bytes32",
          "name": "cr",
          "type": "bytes32"
        },
        {
          "internalType": "uint256",
          "name": "con",
          "type": "uint256"
        },
        {
          "internalType": "uint256",
          "name": "q",
          "type": "uint256"
        },
        {
          "internalType": "uint256",
          "name": "pr",
          "type": "uint256"
        }
      ],
      "name": "produce",
      "outputs": [],
      "payable": false,
      "stateMutability": "nonpayable",
      "type": "function"
    },
    {
      "constant": true,
      "inputs": [
        {
          "internalType": "bytes",
          "name": "j",
          "type": "bytes"
        }
      ],
      "name": "getproduce",
      "outputs": [
        {
          "internalType": "bytes",
          "name": "",
          "type": "bytes"
        },
        {
          "internalType": "bytes32",
          "name": "",
          "type": "bytes32"
        },
        {
          "internalType": "bytes32",
          "name": "",
          "type": "bytes32"
        },
        {
          "internalType": "bytes32",
          "name": "",
          "type": "bytes32"
        },
        {
          "internalType": "uint256",
          "name": "",
          "type": "uint256"
        },
        {
          "internalType": "uint256",
          "name": "",
          "type": "uint256"
        },
        {
          "internalType": "uint256",
          "name": "",
          "type": "uint256"
        }
      ],
      "payable": false,
      "stateMutability": "view",
      "type": "function"
    },
    {
      "constant": false,
      "inputs": [
        {
          "internalType": "bytes",
          "name": "ll",
          "type": "bytes"
        },
        {
          "internalType": "bytes",
          "name": "g",
          "type": "bytes"
        },
        {
          "internalType": "uint256",
          "name": "p",
          "type": "uint256"
        },
        {
          "internalType": "bytes32",
          "name": "tt",
          "type": "bytes32"
        },
        {
          "internalType": "bytes32",
          "name": "e",
          "type": "bytes32"
        }
      ],
      "name": "quality",
      "outputs": [],
      "payable": false,
      "stateMutability": "nonpayable",
      "type": "function"
    },
    {
      "constant": true,
      "inputs": [
        {
          "internalType": "bytes",
          "name": "k",
          "type": "bytes"
        }
      ],
      "name": "getquality",
      "outputs": [
        {
          "internalType": "bytes",
          "name": "",
          "type": "bytes"
        },
        {
          "internalType": "bytes",
          "name": "",
          "type": "bytes"
        },
        {
          "internalType": "uint256",
          "name": "",
          "type": "uint256"
        },
        {
          "internalType": "bytes32",
          "name": "",
          "type": "bytes32"
        },
        {
          "internalType": "bytes32",
          "name": "",
          "type": "bytes32"
        }
      ],
      "payable": false,
      "stateMutability": "view",
      "type": "function"
    }
  ],
  "bytecode": "0x60806040526001600055600160025534801561001a57600080fd5b506114d18061002a6000396000f3fe608060405234801561001057600080fd5b50600436106100ec576000357c0100000000000000000000000000000000000000000000000000000000900480638308abd4116100a9578063b81e3a5011610083578063b81e3a501461064f578063c3da42b814610699578063f8b2cb4f146106a1578063fb5ade31146106c7576100ec565b80638308abd41461060957806386b714e21461062d57806392d0d15314610647576100ec565b806304eb580c146100f157806307467a021461022b5780632c6d8fa7146102ea5780635487e06e1461039057806354bb1361146104535780635ef53ded14610563575b600080fd5b610229600480360360a081101561010757600080fd5b81019060208101813564010000000081111561012257600080fd5b82018360208201111561013457600080fd5b8035906020019184600183028401116401000000008311171561015657600080fd5b91908080601f01602080910402602001604051908101604052809392919081815260200183838082843760009201919091525092959493602081019350359150506401000000008111156101a957600080fd5b8201836020820111156101bb57600080fd5b803590602001918460018302840111640100000000831117156101dd57600080fd5b91908080601f01602080910402602001604051908101604052809392919081815260200183838082843760009201919091525092955050823593505050602081013590604001356106ed565b005b6102486004803603602081101561024157600080fd5b5035610866565b6040518080602001888152602001878152602001868152602001858152602001848152602001838152602001828103825289818151815260200191508051906020019080838360005b838110156102a9578181015183820152602001610291565b50505050905090810190601f1680156102d65780820380516001836020036101000a031916815260200191505b509850505050505050505060405180910390f35b6102486004803603602081101561030057600080fd5b81019060208101813564010000000081111561031b57600080fd5b82018360208201111561032d57600080fd5b8035906020019184600183028401116401000000008311171561034f57600080fd5b91908080601f01602080910402602001604051908101604052809392919081815260200183838082843760009201919091525092955061093a945050505050565b610229600480360360e08110156103a657600080fd5b8101906020810181356401000000008111156103c157600080fd5b8201836020820111156103d357600080fd5b803590602001918460018302840111640100000000831117156103f557600080fd5b91908080601f0160208091040260200160405190810160405280939291908181526020018383808284376000920191909152509295505082359350505060208101359060408101359060608101359060808101359060a00135610cb6565b6104706004803603602081101561046957600080fd5b5035610e50565b604051808060200180602001868152602001858152602001848152602001838103835288818151815260200191508051906020019080838360005b838110156104c35781810151838201526020016104ab565b50505050905090810190601f1680156104f05780820380516001836020036101000a031916815260200191505b50838103825287518152875160209182019189019080838360005b8381101561052357818101518382015260200161050b565b50505050905090810190601f1680156105505780820380516001836020036101000a031916815260200191505b5097505050505050505060405180910390f35b6104706004803603602081101561057957600080fd5b81019060208101813564010000000081111561059457600080fd5b8201836020820111156105a657600080fd5b803590602001918460018302840111640100000000831117156105c857600080fd5b91908080601f016020809104026020016040519081016040528093929190818152602001838380828437600092019190915250929550610fb0945050505050565b6106116112dd565b60408051600160a060020a039092168252519081900360200190f35b6106356112ec565b60408051918252519081900360200190f35b6106356112f2565b6106856004803603606081101561066557600080fd5b50600160a060020a038135811691602081013591604090910135166112f8565b604080519115158252519081900360200190f35b610635611358565b610635600480360360208110156106b757600080fd5b5035600160a060020a031661135e565b610229600480360360208110156106dd57600080fd5b5035600160a060020a0316611379565b6106f5611397565b6040518060a00160405280878152602001868152602001858152602001848152602001838152509050806008876040518082805190602001908083835b602083106107515780518252601f199092019160209182019101610732565b51815160209384036101000a6000190180199092169116179052920194855250604051938490038101909320845180519194610792945085935001906113c5565b5060208281015180516107ab92600185019201906113c5565b50604082015160028201556060820151600382015560809091015160049091015560098054600181018083556000929092528251805184926005027f6e1540171b6c0c960b71a7020d9f60077f6af931a8bbf590da0223dacf75c7af0191610818918391602001906113c5565b50602082810151805161083192600185019201906113c5565b506040820151600280830191909155606083015160038301556080909201516004909101558054600101905550505050505050565b6007818154811061087357fe5b60009182526020918290206007919091020180546040805160026001841615610100026000190190931692909204601f81018590048502830185019091528082529193509183919083018282801561090c5780601f106108e15761010080835404028352916020019161090c565b820191906000526020600020905b8154815290600101906020018083116108ef57829003601f168201915b5050505050908060010154908060020154908060030154908060040154908060050154908060060154905087565b60606000806000806000806006886040518082805190602001908083835b602083106109775780518252601f199092019160209182019101610958565b51815160209384036101000a600019018019909216911617905292019485525060405193849003810184208c519094600694508d9350918291908401908083835b602083106109d75780518252601f1990920191602091820191016109b8565b51815160209384036101000a60001901801990921691161790529201948552506040519384900381018420600101548d519094600694508e9350918291908401908083835b60208310610a3b5780518252601f199092019160209182019101610a1c565b51815160209384036101000a60001901801990921691161790529201948552506040519384900381018420600201548e519094600694508f9350918291908401908083835b60208310610a9f5780518252601f199092019160209182019101610a80565b6001836020036101000a03801982511681845116808217855250505050505090500191505090815260200160405180910390206003015460068c6040518082805190602001908083835b60208310610b085780518252601f199092019160209182019101610ae9565b6001836020036101000a03801982511681845116808217855250505050505090500191505090815260200160405180910390206004015460068d6040518082805190602001908083835b60208310610b715780518252601f199092019160209182019101610b52565b6001836020036101000a03801982511681845116808217855250505050505090500191505090815260200160405180910390206005015460068e6040518082805190602001908083835b60208310610bda5780518252601f199092019160209182019101610bbb565b518151600019602094850361010090810a82019283169219939093169190911790925294909201968752604080519788900382018820600601548e54601f6002600183161590980290950116959095049283018290048202880182019052818752929594508b9350918401905082828015610c965780601f10610c6b57610100808354040283529160200191610c96565b820191906000526020600020905b815481529060010190602001808311610c7957829003601f168201915b505050505096509650965096509650965096509650919395979092949650565b610cbe611443565b6040518060e00160405280898152602001888152602001878152602001868152602001858152602001848152602001838152509050806006896040518082805190602001908083835b60208310610d265780518252601f199092019160209182019101610d07565b51815160209384036101000a6000190180199092169116179052920194855250604051938490038101909320845180519194610d67945085935001906113c5565b5060208281015160018084019190915560408401516002840155606084015160038401556080840151600484015560a0840151600584015560c090930151600690920191909155600780549283018082556000829052845180519194869493027fa66cc928b5edb82af9bd49922954155ab7b0942694bea4ce44661d9a8736c6880192610df9928492909101906113c5565b50602082015160018083019190915560408301516002830155606083015160038301556080830151600483015560a0830151600583015560c090920151600690910155600080549091019055505050505050505050565b60098181548110610e5d57fe5b60009182526020918290206005919091020180546040805160026001841615610100026000190190931692909204601f810185900485028301850190915280825291935091839190830182828015610ef65780601f10610ecb57610100808354040283529160200191610ef6565b820191906000526020600020905b815481529060010190602001808311610ed957829003601f168201915b505050505090806001018054600181600116156101000203166002900480601f016020809104026020016040519081016040528092919081815260200182805460018160011615610100020316600290048015610f945780601f10610f6957610100808354040283529160200191610f94565b820191906000526020600020905b815481529060010190602001808311610f7757829003601f168201915b5050505050908060020154908060030154908060040154905085565b60608060008060006008866040518082805190602001908083835b60208310610fea5780518252601f199092019160209182019101610fcb565b51815160209384036101000a600019018019909216911617905292019485525060405193849003810184208a519094600894508b9350918291908401908083835b6020831061104a5780518252601f19909201916020918201910161102b565b6001836020036101000a03801982511681845116808217855250505050505090500191505090815260200160405180910390206001016008886040518082805190602001908083835b602083106110b25780518252601f199092019160209182019101611093565b51815160209384036101000a60001901801990921691161790529201948552506040519384900381018420600201548c519094600894508d9350918291908401908083835b602083106111165780518252601f1990920191602091820191016110f7565b51815160209384036101000a60001901801990921691161790529201948552506040519384900381018420600301548d519094600894508e9350918291908401908083835b6020831061117a5780518252601f19909201916020918201910161115b565b518151600019602094850361010090810a82019283169219939093169190911790925294909201968752604080519788900382018820600401548c54601f6002600183161590980290950116959095049283018290048202880182019052818752929594508993509184019050828280156112365780601f1061120b57610100808354040283529160200191611236565b820191906000526020600020905b81548152906001019060200180831161121957829003601f168201915b5050875460408051602060026001851615610100026000190190941693909304601f8101849004840282018401909252818152959a50899450925084019050828280156112c45780601f10611299576101008083540402835291602001916112c4565b820191906000526020600020905b8154815290600101906020018083116112a757829003601f168201915b50989f939e50959c50939a509198509650505050505050565b600454600160a060020a031681565b60005481565b60025481565b600160a060020a03811660009081526003602052604081205483111561132057506000611351565b50600160a060020a038082166000908152600360205260408082208054869003905591851681522080548301905560015b9392505050565b60015481565b600160a060020a031660009081526003602052604090205490565b600160a060020a031660009081526003602052604090206107d09055565b6040805160a08101825260608082526020820181905260009282018390528101829052608081019190915290565b828054600181600116156101000203166002900490600052602060002090601f016020900481019282601f1061140657805160ff1916838001178555611433565b82800160010185558215611433579182015b82811115611433578251825591602001919060010190611418565b5061143f92915061147f565b5090565b6040805160e081018252606080825260006020830181905292820183905281018290526080810182905260a0810182905260c081019190915290565b61149991905b8082111561143f5760008155600101611485565b9056fea265627a7a72315820947d2cc10f5ac4bef567ba4e833b7106788f1f78aa5f4e8bca8f076af3f07aaa64736f6c634300050b0032",
  "source": "pragma solidity ^0.5.0;\n\ncontract StructStorage {\n\n    uint256 public s = 1; \n    uint256 public c;\n    uint256 public t=1;\n    mapping (address => uint) balances;\n\n    function fundaddr(address addr) public{\n        balances[addr] = 2000;\n    }\n\n        function sendCoin(address receiver, uint amount, address sender) public returns(bool sufficient){\n        \n        \n        if (balances[sender] < amount) \n        return false;\n        \n        balances[sender] -= amount;\n        balances[receiver] += amount;\n        \n                        \n        return true;\n        \n    }\n\n    function getBalance(address addr) view public returns(uint){\n        return balances[addr];\n    }\nstruct farmer {\n   \n    bytes fid;\n    bytes32 fname;\n    bytes32 loc;\n    bytes32 crop;\n    uint256 contact;\n    uint quantity;\n    uint exprice;\n}\n\nstruct lot {\n\n    bytes lotno;\n    bytes grade;\n    uint mrp;\n    bytes32 testdate;\n    bytes32 expdate;\n}\n\naddress public tester;\naddress owner;\n\nmapping (bytes => farmer) f1;\nfarmer[] public fm;\n\nmapping (bytes => lot) l1;\nlot[] public l;\n\n\n\nfunction produce(bytes memory id, bytes32 name, bytes32 loc, bytes32 cr, uint256 con, uint q, uint pr) public{\n               \n        StructStorage.farmer memory fnew = farmer(id,name,loc,cr,con,q,pr);\n        f1[id] = fnew;\n        fm.push(fnew);\n        s++;\n  \n}\n    \n function getproduce(bytes memory j) public view returns(bytes memory,bytes32,bytes32,bytes32,uint256,uint,uint) {\n        return (f1[j].fid,f1[j].fname,f1[j].loc,f1[j].crop,f1[j].contact,f1[j].quantity,f1[j].exprice);\n    }\n function quality(bytes memory ll, bytes memory g, uint256 p, bytes32 tt, bytes32 e) public{\n    \n        StructStorage.lot memory lnew=lot(ll,g,p,tt,e);\n        l1[ll]=lnew;\n        l.push(lnew);\n        t++;\n  \n }  \n function getquality(bytes memory k) public view returns(bytes memory,bytes memory,uint,bytes32,bytes32) {\n     return(l1[k].lotno,l1[k].grade,l1[k].mrp,l1[k].testdate,l1[k].expdate);\n     \n }\n}\n",
  "sourcePath": "C:\\Users\\donmi\\Music\\github\\jones\\Agrochain-A-Blockchain-Based-Agricultural-Supply-Chain\\contracts\\StructStorage.sol",
  "compiler": {
    "name": "solc",
    "version": "0.5.11+commit.c082d0b4.Emscripten.clang"
  },
  "schemaVersion": "3.4.16",
  "updatedAt": "2025-03-05T09:43:12.324Z",
  "devdoc": {
    "methods": {}
  },
  "userdoc": {
    "methods": {}
  },
  "db": {
    "callBytecode": {
      "id": "0x7ca81432721034dcdd3e19d1b6ae6fb4c22b6cefebed72455d2251095ea85ec9"
    },
    "createBytecode": {
      "id": "0xa4c9d93ecaa902a6c3b19a8c2f7cca54627553f2849b7d6a0ad1841eab51e694"
    },
    "contract": {
      "id": "0xe4d81151de5a37f76648232bc20f4e19eb1feb93086ec1c5d0d77b4aa91ae863"
    }
  }
}